:100000000C9461000C947E000C947E000C947E0095
:100010000C947E000C947E000C947E000C947E0068
:100020000C947E000C947E000C947E000C947E0058
:100030000C947E000C947E000C947E000C947E0048
:100040000C94A0010C947E000C947E000C947E0015
:100050000C947E000C947E000C947E000C947E0028
:100060000C947E000C947E00000000002400270009
:100070002A0000000000250028002B0000000000DE
:1000800023002600290004040404040404040202DA
:100090000202020203030303030301020408102007
:1000A0004080010204081020010204081020000012
:1000B0000008000201000003040700000000000027
:1000C000000011241FBECFEFD8E0DEBFCDBF11E08E
:1000D000A0E0B1E0ECE6F6E002C005900D92A030A1
:1000E000B107D9F721E0A0E0B1E001C01D92A9302D
:1000F000B207E1F70E94EA010C9434030C9400006B
:10010000833081F028F4813099F08230A9F008958D
:100110008730A9F08830C9F08430B1F48091800034
:100120008F7D03C0809180008F7780938000089539
:1001300084B58F7784BD089584B58F7DFBCF809182
:10014000B0008F778093B00008958091B0008F7DCC
:10015000F9CFCF93DF93282F30E0F901E255FF4F1D
:100160008491F901E656FF4FD491F901EA57FF4F08
:10017000C491CC23A1F081110E948000EC2FF0E00B
:10018000EE0FFF1FE458FF4FA591B491EC91ED23C2
:1001900081E090E009F480E0DF91CF91089580E064
:1001A00090E0FACF1F93CF93DF93282F30E0F9012F
:1001B000E255FF4F8491F901E656FF4FD491F901C2
:1001C000EA57FF4FC491CC23A9F0162F81110E944A
:1001D0008000EC2FF0E0EE0FFF1FEE58FF4FA591CF
:1001E000B4918FB7F894EC91111108C0D095DE232B
:1001F000DC938FBFDF91CF911F910895DE2BF8CF55
:10020000CF93DF9390E0FC01E656FF4F24918A578D
:100210009F4FFC0184918823D1F090E0880F991FB3
:10022000FC01E859FF4FA591B491FC01EE58FF4F36
:10023000C591D49161110EC09FB7F8948C91E22FB3
:10024000E0958E238C932881E223E8839FBFDF9182
:10025000CF9108958FB7F894EC91E22BEC938FBF78
:10026000F6CF1F93CF93DF93182FEB0161E00E942D
:100270000001209739F460E0812FDF91CF911F9129
:100280000C94D200CF3FD10511F461E0F5CFE12FFE
:10029000F0E0E255FF4FE491E33031F140F4E1301A
:1002A000B1F0E230E1F0C038D1057CF7E4CFE730BF
:1002B00029F1E83059F1E430B1F780918000806293
:1002C00080938000D0938B00C0938A0004C084B5D3
:1002D000806884BDC7BDDF91CF911F91089584B51B
:1002E000806284BDC8BDF7CF809180008068809314
:1002F0008000D0938900C0938800EDCF8091B0003A
:1003000080688093B000C093B300E5CF8091B000C7
:1003100080628093B000C093B400DDCF8E508064C3
:1003200080937C0080917A00806480937A00809131
:100330007A0086FDFCCF8091780090917900089535
:100340001F920F920FB60F9211242F933F938F930A
:100350009F93AF93BF938091050190910601A09167
:100360000701B09108013091040123E0230F2D37DC
:1003700058F50196A11DB11D20930401809305013C
:1003800090930601A0930701B093080180910001AA
:1003900090910101A0910201B09103010196A11D6C
:1003A000B11D8093000190930101A0930201B093CD
:1003B0000301BF91AF919F918F913F912F910F902A
:1003C0000FBE0F901F90189526E8230F0296A11DCF
:1003D000B11DD2CF789484B5826084BD84B581602C
:1003E00084BD85B5826085BD85B5816085BD809100
:1003F0006E00816080936E00109281008091810078
:10040000826080938100809181008160809381006F
:10041000809180008160809380008091B100846031
:100420008093B1008091B00081608093B000809192
:100430007A00846080937A0080917A008260809351
:100440007A0080917A00816080937A0080917A00AE
:10045000806880937A001092C10061E087E00E947A
:10046000000161E086E00E94000161E085E00E94F9
:10047000000161E084E00E94000161E088E00E94E8
:10048000000161E083E00E94000160E08CE00E94D6
:10049000000160E08DE00E94000144244A9483E062
:1004A000582E612C712C00E010E08EE00E948E012D
:1004B0002BE930E0DC010E942D03A30192010E9490
:1004C000DD0249015A0184E6880E911CA11CB11C71
:1004D00083E10E948E012BE930E0DC010E942D03B4
:1004E000A30192010E94DD0269017A0184E6C80E2F
:1004F000D11CE11CF11C8CE00E94A900EC018DE0F4
:100500000E94A900209709F5009789F5B40188E0B9
:100510000E943101B60183E00E94310161E087E071
:100520000E94D20060E086E00E94D20061E085E097
:100530000E94D20060E084E00E94D2000115110503
:1005400009F4B3CF0E940000B0CF219741F5892B69
:1005500031F5B40188E00E943101B60183E00E94C8
:10056000310160E087E00E94D20061E0DCCF0197BA
:10057000B1F4B40188E00E943101B60183E00E9429
:10058000310161E087E00E94D20060E086E00E94D5
:10059000D20060E085E00E94D20061E0CCCFB401DF
:1005A00088E00E943101B60183E00E94310160E0E1
:1005B00087E00E94D20061E0E9CF052E97FB1EF490
:1005C00000940E94F40257FD07D00E94FC0207FC31
:1005D00003D04EF40C94F40250954095309521953B
:1005E0003F4F4F4F5F4F089590958095709561955F
:1005F0007F4F8F4F9F4F0895A1E21A2EAA1BBB1B5E
:10060000FD010DC0AA1FBB1FEE1FFF1FA217B307DE
:10061000E407F50720F0A21BB30BE40BF50B661FF4
:10062000771F881F991F1A9469F7609570958095B8
:1006300090959B01AC01BD01CF010895A29FB0012F
:10064000B39FC001A39F700D811D1124911DB29F06
:10065000700D811D1124911D08950E941E03B7FF86
:0C0660000895821B930B0895F894FFCFBF
:00000001FF
